{
  "_format": "hh-sol-artifact-1",
  "contractName": "TouristDigitalID",
  "sourceName": "contracts/TouristDigitalID.sol",
  "abi": [
    {
      "inputs": [],
      "stateMutability": "nonpayable",
      "type": "constructor"
    },
    {
      "anonymous": false,
      "inputs": [
        {
          "indexed": true,
          "internalType": "address",
          "name": "authority",
          "type": "address"
        },
        {
          "indexed": false,
          "internalType": "bool",
          "name": "authorized",
          "type": "bool"
        },
        {
          "indexed": false,
          "internalType": "address",
          "name": "changedBy",
          "type": "address"
        }
      ],
      "name": "AuthorityStatusChanged",
      "type": "event"
    },
    {
      "anonymous": false,
      "inputs": [
        {
          "indexed": true,
          "internalType": "uint256",
          "name": "digitalId",
          "type": "uint256"
        },
        {
          "indexed": true,
          "internalType": "string",
          "name": "touristUserId",
          "type": "string"
        },
        {
          "indexed": true,
          "internalType": "address",
          "name": "authority",
          "type": "address"
        },
        {
          "indexed": false,
          "internalType": "uint8",
          "name": "verificationLevel",
          "type": "uint8"
        }
      ],
      "name": "DigitalIDCreated",
      "type": "event"
    },
    {
      "anonymous": false,
      "inputs": [
        {
          "indexed": true,
          "internalType": "uint256",
          "name": "digitalId",
          "type": "uint256"
        },
        {
          "indexed": false,
          "internalType": "enum TouristDigitalID.Status",
          "name": "oldStatus",
          "type": "uint8"
        },
        {
          "indexed": false,
          "internalType": "enum TouristDigitalID.Status",
          "name": "newStatus",
          "type": "uint8"
        },
        {
          "indexed": false,
          "internalType": "address",
          "name": "updatedBy",
          "type": "address"
        }
      ],
      "name": "IDStatusUpdated",
      "type": "event"
    },
    {
      "anonymous": false,
      "inputs": [
        {
          "indexed": true,
          "internalType": "uint256",
          "name": "digitalId",
          "type": "uint256"
        },
        {
          "indexed": true,
          "internalType": "address",
          "name": "verifier",
          "type": "address"
        }
      ],
      "name": "IDVerificationRequested",
      "type": "event"
    },
    {
      "inputs": [
        {
          "internalType": "address",
          "name": "",
          "type": "address"
        }
      ],
      "name": "authorizedAuthorities",
      "outputs": [
        {
          "internalType": "bool",
          "name": "",
          "type": "bool"
        }
      ],
      "stateMutability": "view",
      "type": "function"
    },
    {
      "inputs": [
        {
          "internalType": "string[]",
          "name": "_touristUserIds",
          "type": "string[]"
        },
        {
          "internalType": "string[]",
          "name": "_names",
          "type": "string[]"
        },
        {
          "internalType": "bytes32[]",
          "name": "_kycHashes",
          "type": "bytes32[]"
        },
        {
          "internalType": "bytes32[]",
          "name": "_personalHashes",
          "type": "bytes32[]"
        },
        {
          "internalType": "uint8[]",
          "name": "_verificationLevels",
          "type": "uint8[]"
        }
      ],
      "name": "batchCreateIDs",
      "outputs": [],
      "stateMutability": "nonpayable",
      "type": "function"
    },
    {
      "inputs": [
        {
          "internalType": "string",
          "name": "_touristUserId",
          "type": "string"
        },
        {
          "internalType": "string",
          "name": "_name",
          "type": "string"
        },
        {
          "internalType": "bytes32",
          "name": "_kycHash",
          "type": "bytes32"
        },
        {
          "internalType": "bytes32",
          "name": "_personalHash",
          "type": "bytes32"
        },
        {
          "internalType": "uint256",
          "name": "_expirationTimestamp",
          "type": "uint256"
        },
        {
          "internalType": "uint8",
          "name": "_verificationLevel",
          "type": "uint8"
        }
      ],
      "name": "createDigitalID",
      "outputs": [
        {
          "internalType": "uint256",
          "name": "",
          "type": "uint256"
        }
      ],
      "stateMutability": "nonpayable",
      "type": "function"
    },
    {
      "inputs": [
        {
          "internalType": "uint256",
          "name": "",
          "type": "uint256"
        }
      ],
      "name": "digitalIDs",
      "outputs": [
        {
          "internalType": "uint256",
          "name": "digitalId",
          "type": "uint256"
        },
        {
          "internalType": "string",
          "name": "touristUserId",
          "type": "string"
        },
        {
          "internalType": "string",
          "name": "name",
          "type": "string"
        },
        {
          "internalType": "address",
          "name": "authorityAddress",
          "type": "address"
        },
        {
          "internalType": "bytes32",
          "name": "kycDocumentHash",
          "type": "bytes32"
        },
        {
          "internalType": "bytes32",
          "name": "personalDataHash",
          "type": "bytes32"
        },
        {
          "internalType": "uint256",
          "name": "issueTimestamp",
          "type": "uint256"
        },
        {
          "internalType": "uint256",
          "name": "expirationTimestamp",
          "type": "uint256"
        },
        {
          "internalType": "enum TouristDigitalID.Status",
          "name": "status",
          "type": "uint8"
        },
        {
          "internalType": "uint8",
          "name": "verificationLevel",
          "type": "uint8"
        },
        {
          "internalType": "bool",
          "name": "exists",
          "type": "bool"
        }
      ],
      "stateMutability": "view",
      "type": "function"
    },
    {
      "inputs": [],
      "name": "getContractStats",
      "outputs": [
        {
          "internalType": "uint256",
          "name": "totalIDs",
          "type": "uint256"
        },
        {
          "internalType": "uint256",
          "name": "activeIDs",
          "type": "uint256"
        },
        {
          "internalType": "uint256",
          "name": "totalAuthorities",
          "type": "uint256"
        }
      ],
      "stateMutability": "view",
      "type": "function"
    },
    {
      "inputs": [
        {
          "internalType": "string",
          "name": "_touristUserId",
          "type": "string"
        }
      ],
      "name": "getIDByTouristId",
      "outputs": [
        {
          "internalType": "uint256",
          "name": "digitalId",
          "type": "uint256"
        }
      ],
      "stateMutability": "view",
      "type": "function"
    },
    {
      "inputs": [
        {
          "internalType": "uint256",
          "name": "_digitalId",
          "type": "uint256"
        }
      ],
      "name": "getIDDetails",
      "outputs": [
        {
          "components": [
            {
              "internalType": "uint256",
              "name": "digitalId",
              "type": "uint256"
            },
            {
              "internalType": "string",
              "name": "touristUserId",
              "type": "string"
            },
            {
              "internalType": "string",
              "name": "name",
              "type": "string"
            },
            {
              "internalType": "address",
              "name": "authorityAddress",
              "type": "address"
            },
            {
              "internalType": "bytes32",
              "name": "kycDocumentHash",
              "type": "bytes32"
            },
            {
              "internalType": "bytes32",
              "name": "personalDataHash",
              "type": "bytes32"
            },
            {
              "internalType": "uint256",
              "name": "issueTimestamp",
              "type": "uint256"
            },
            {
              "internalType": "uint256",
              "name": "expirationTimestamp",
              "type": "uint256"
            },
            {
              "internalType": "enum TouristDigitalID.Status",
              "name": "status",
              "type": "uint8"
            },
            {
              "internalType": "uint8",
              "name": "verificationLevel",
              "type": "uint8"
            },
            {
              "internalType": "bool",
              "name": "exists",
              "type": "bool"
            }
          ],
          "internalType": "struct TouristDigitalID.DigitalID",
          "name": "digitalID",
          "type": "tuple"
        }
      ],
      "stateMutability": "view",
      "type": "function"
    },
    {
      "inputs": [],
      "name": "nextDigitalId",
      "outputs": [
        {
          "internalType": "uint256",
          "name": "",
          "type": "uint256"
        }
      ],
      "stateMutability": "view",
      "type": "function"
    },
    {
      "inputs": [],
      "name": "owner",
      "outputs": [
        {
          "internalType": "address",
          "name": "",
          "type": "address"
        }
      ],
      "stateMutability": "view",
      "type": "function"
    },
    {
      "inputs": [],
      "name": "pauseContract",
      "outputs": [],
      "stateMutability": "nonpayable",
      "type": "function"
    },
    {
      "inputs": [],
      "name": "paused",
      "outputs": [
        {
          "internalType": "bool",
          "name": "",
          "type": "bool"
        }
      ],
      "stateMutability": "view",
      "type": "function"
    },
    {
      "inputs": [
        {
          "internalType": "uint256",
          "name": "_digitalId",
          "type": "uint256"
        },
        {
          "internalType": "uint256",
          "name": "_newExpiration",
          "type": "uint256"
        }
      ],
      "name": "renewDigitalID",
      "outputs": [],
      "stateMutability": "nonpayable",
      "type": "function"
    },
    {
      "inputs": [],
      "name": "resetContract",
      "outputs": [],
      "stateMutability": "nonpayable",
      "type": "function"
    },
    {
      "inputs": [
        {
          "internalType": "address",
          "name": "_authority",
          "type": "address"
        },
        {
          "internalType": "bool",
          "name": "_isAuthorized",
          "type": "bool"
        }
      ],
      "name": "setAuthority",
      "outputs": [],
      "stateMutability": "nonpayable",
      "type": "function"
    },
    {
      "inputs": [],
      "name": "totalActiveIDs",
      "outputs": [
        {
          "internalType": "uint256",
          "name": "",
          "type": "uint256"
        }
      ],
      "stateMutability": "view",
      "type": "function"
    },
    {
      "inputs": [
        {
          "internalType": "string",
          "name": "",
          "type": "string"
        }
      ],
      "name": "touristToDigitalId",
      "outputs": [
        {
          "internalType": "uint256",
          "name": "",
          "type": "uint256"
        }
      ],
      "stateMutability": "view",
      "type": "function"
    },
    {
      "inputs": [],
      "name": "unpauseContract",
      "outputs": [],
      "stateMutability": "nonpayable",
      "type": "function"
    },
    {
      "inputs": [
        {
          "internalType": "uint256",
          "name": "_digitalId",
          "type": "uint256"
        },
        {
          "internalType": "enum TouristDigitalID.Status",
          "name": "_newStatus",
          "type": "uint8"
        }
      ],
      "name": "updateIDStatus",
      "outputs": [],
      "stateMutability": "nonpayable",
      "type": "function"
    },
    {
      "inputs": [
        {
          "internalType": "uint256",
          "name": "_digitalId",
          "type": "uint256"
        }
      ],
      "name": "verifyDigitalID",
      "outputs": [
        {
          "internalType": "bool",
          "name": "valid",
          "type": "bool"
        },
        {
          "internalType": "enum TouristDigitalID.Status",
          "name": "status",
          "type": "uint8"
        }
      ],
      "stateMutability": "view",
      "type": "function"
    }
  ],
  "bytecode": "0x6080604052600160045560006005556006805460ff1916905534801561002457600080fd5b50600080546001600160a01b0319163390811782558152600160208190526040909120805460ff191690911790556121d0806100616000396000f3fe608060405234801561001057600080fd5b50600436106101215760003560e01c8063a7bc3168116100ad578063bef83fff11610071578063bef83fff14610271578063dd744a281461029c578063dfe6b5d6146102a5578063f3fdfb69146102c8578063fe88b302146102db57600080fd5b8063a7bc316814610232578063b181a8fc14610245578063b33712c51461024d578063b5f0d35c14610255578063badfbf1c1461026857600080fd5b806366dc4015116100f457806366dc4015146101865780636a335f6a146101a95780638a5778ba146101ca5780638da5cb5b146101f457806397ee853e1461021f57600080fd5b80632141bfa0146101265780632218c5b41461013b578063439766ce146101615780635c975abb14610169575b600080fd5b610139610134366004611a19565b6102fb565b005b61014e610149366004611aeb565b61072c565b6040519081526020015b60405180910390f35b610139610b6e565b6006546101769060ff1681565b6040519015158152602001610158565b610176610194366004611b92565b60016020526000908152604090205460ff1681565b6101bc6101b7366004611bb4565b610ba7565b604051610158929190611c05565b6101dd6101d8366004611bb4565b610dfe565b6040516101589b9a99989796959493929190611c6b565b600054610207906001600160a01b031681565b6040516001600160a01b039091168152602001610158565b61013961022d366004611cf3565b610f78565b610139610240366004611d15565b611185565b6101396113be565b6101396113f4565b610139610263366004611d49565b61142a565b61014e60055481565b61014e61027f366004611d7a565b805160208183018101805160038252928201919093012091525481565b61014e60045481565b6102ad611511565b60408051938452602084019290925290820152606001610158565b61014e6102d6366004611d7a565b611539565b6102ee6102e9366004611bb4565b611561565b6040516101589190611db7565b6000546001600160a01b0316331461032e5760405162461bcd60e51b815260040161032590611e84565b60405180910390fd5b60065460ff16156103515760405162461bcd60e51b815260040161032590611ec6565b83518551146103725760405162461bcd60e51b815260040161032590611ef2565b82518551146103935760405162461bcd60e51b815260040161032590611ef2565b81518551146103b45760405162461bcd60e51b815260040161032590611ef2565b80518551146103d55760405162461bcd60e51b815260040161032590611ef2565b60006103e5426301e13380611f37565b905060005b865181101561072357600387828151811061040757610407611f50565b602002602001015160405161041c9190611f66565b90815260200160405180910390205460000361071157600480546000918261044383611f82565b91905055905060405180610160016040528082815260200189848151811061046d5761046d611f50565b6020026020010151815260200188848151811061048c5761048c611f50565b60200260200101518152602001336001600160a01b031681526020018784815181106104ba576104ba611f50565b602002602001015181526020018684815181106104d9576104d9611f50565b602002602001015181526020014281526020018481526020016000600381111561050557610505611bcd565b815260200185848151811061051c5761051c611f50565b60209081029190910181015160ff16825260019181018290526000848152600282526040902083518155908301519091820190610559908261201d565b506040820151600282019061056e908261201d565b506060820151600382810180546001600160a01b0319166001600160a01b03909316929092179091556080830151600483015560a0830151600583015560c0830151600683015560e083015160078301556101008301516008830180549192909160ff19169060019084908111156105e8576105e8611bcd565b021790555061012082015160089091018054610140909301511515620100000262ff00001960ff909316610100029290921662ffff001990931692909217179055875181906003908a908590811061064257610642611f50565b60200260200101516040516106579190611f66565b908152604051908190036020019020556005805490600061067783611f82565b9190505550336001600160a01b031688838151811061069857610698611f50565b60200260200101516040516106ad9190611f66565b6040518091039020827f0328a5ff568f7dc1f5594294660c203a6029d9a148fc87a9d6228a7a923f5e998786815181106106e9576106e9611f50565b6020026020010151604051610707919060ff91909116815260200190565b60405180910390a4505b8061071b81611f82565b9150506103ea565b50505050505050565b3360009081526001602052604081205460ff168061075457506000546001600160a01b031633145b6107705760405162461bcd60e51b8152600401610325906120dd565b60065460ff16156107935760405162461bcd60e51b815260040161032590611ec6565b60008751116107e45760405162461bcd60e51b815260206004820152601f60248201527f546f757269737420757365722049442063616e6e6f7420626520656d707479006044820152606401610325565b600086511161082c5760405162461bcd60e51b81526020600482015260146024820152734e616d652063616e6e6f7420626520656d70747960601b6044820152606401610325565b42831161087b5760405162461bcd60e51b815260206004820152601c60248201527f45787069726174696f6e206d75737420626520696e20667574757265000000006044820152606401610325565b60018260ff1610158015610893575060058260ff1611155b6108df5760405162461bcd60e51b815260206004820152601e60248201527f566572696669636174696f6e206c6576656c206d75737420626520312d3500006044820152606401610325565b6003876040516108ef9190611f66565b9081526020016040518091039020546000146109605760405162461bcd60e51b815260206004820152602a60248201527f4469676974616c20494420616c72656164792065786973747320666f722074686044820152691a5cc81d1bdd5c9a5cdd60b21b6064820152608401610325565b600480546000918261097183611f82565b919050559050604051806101600160405280828152602001898152602001888152602001336001600160a01b03168152602001878152602001868152602001428152602001858152602001600060038111156109cf576109cf611bcd565b815260ff8516602080830191909152600160409283018190526000858152600283529290922083518155908301519091820190610a0c908261201d565b5060408201516002820190610a21908261201d565b506060820151600382810180546001600160a01b0319166001600160a01b03909316929092179091556080830151600483015560a0830151600583015560c0830151600683015560e083015160078301556101008301516008830180549192909160ff1916906001908490811115610a9b57610a9b611bcd565b021790555061012082015160089091018054610140909301511515620100000262ff00001960ff909316610100029290921662ffff0019909316929092171790556040518190600390610aef908b90611f66565b9081526040519081900360200190205560058054906000610b0f83611f82565b90915550506040513390610b24908a90611f66565b60405190819003812060ff861682529083907f0328a5ff568f7dc1f5594294660c203a6029d9a148fc87a9d6228a7a923f5e999060200160405180910390a4979650505050505050565b6000546001600160a01b03163314610b985760405162461bcd60e51b815260040161032590611e84565b6006805460ff19166001179055565b600081815260026020526040812060080154819062010000900460ff16610bd45750600092600392509050565b6000600260008581526020019081526020016000206040518061016001604052908160008201548152602001600182018054610c0f90611f9b565b80601f0160208091040260200160405190810160405280929190818152602001828054610c3b90611f9b565b8015610c885780601f10610c5d57610100808354040283529160200191610c88565b820191906000526020600020905b815481529060010190602001808311610c6b57829003601f168201915b50505050508152602001600282018054610ca190611f9b565b80601f0160208091040260200160405190810160405280929190818152602001828054610ccd90611f9b565b8015610d1a5780601f10610cef57610100808354040283529160200191610d1a565b820191906000526020600020905b815481529060010190602001808311610cfd57829003601f168201915b50505091835250506003828101546001600160a01b03166020830152600483015460408301526005830154606083015260068301546080830152600783015460a0830152600883015460c09092019160ff1690811115610d7c57610d7c611bcd565b6003811115610d8d57610d8d611bcd565b81526008919091015460ff6101008204811660208401526201000090910416151560409091015260e0810151909150421115610dd0575060009360029350915050565b6000808261010001516003811115610dea57610dea611bcd565b610100909301519214959194509092505050565b60026020526000908152604090208054600182018054919291610e2090611f9b565b80601f0160208091040260200160405190810160405280929190818152602001828054610e4c90611f9b565b8015610e995780601f10610e6e57610100808354040283529160200191610e99565b820191906000526020600020905b815481529060010190602001808311610e7c57829003601f168201915b505050505090806002018054610eae90611f9b565b80601f0160208091040260200160405190810160405280929190818152602001828054610eda90611f9b565b8015610f275780601f10610efc57610100808354040283529160200191610f27565b820191906000526020600020905b815481529060010190602001808311610f0a57829003601f168201915b5050506003840154600485015460058601546006870154600788015460089098015496976001600160a01b0390941696929550909350919060ff80821691610100810482169162010000909104168b565b3360009081526001602052604090205460ff1680610fa057506000546001600160a01b031633145b610fbc5760405162461bcd60e51b8152600401610325906120dd565b60065460ff1615610fdf5760405162461bcd60e51b815260040161032590611ec6565b600082815260026020526040902060080154829062010000900460ff166110185760405162461bcd60e51b815260040161032590612105565b4282116110675760405162461bcd60e51b815260206004820181905260248201527f4e65772065787069726174696f6e206d75737420626520696e206675747572656044820152606401610325565b60008381526002602052604090206007015482116110d95760405162461bcd60e51b815260206004820152602960248201527f4e65772065787069726174696f6e206d757374206265206c61746572207468616044820152681b8818dd5c9c995b9d60ba1b6064820152608401610325565b6000838152600260208190526040909120600781018490556008015460ff16600381111561110957611109611bcd565b03611180576000838152600260205260408120600801805460ff1981169091556005805460ff9092169261113c83611f82565b9190505550837fb9fc122007a151e9f0ad733b0284e917cc1d14c37e85c9822aa39929cd05e0e7826000336040516111769392919061213c565b60405180910390a2505b505050565b3360009081526001602052604090205460ff16806111ad57506000546001600160a01b031633145b6111c95760405162461bcd60e51b8152600401610325906120dd565b60065460ff16156111ec5760405162461bcd60e51b815260040161032590611ec6565b600082815260026020526040902060080154829062010000900460ff166112255760405162461bcd60e51b815260040161032590612105565b60008381526002602052604090206008015460ff1682600381111561124c5761124c611bcd565b81600381111561125e5761125e611bcd565b036112b75760405162461bcd60e51b815260206004820152602360248201527f53746174757320697320616c72656164792073657420746f20746869732076616044820152626c756560e81b6064820152608401610325565b6000848152600260205260409020600801805484919060ff191660018360038111156112e5576112e5611bcd565b021790555060008160038111156112fe576112fe611bcd565b14801561131d5750600083600381111561131a5761131a611bcd565b14155b1561133c576005805490600061133283612170565b919050555061138a565b600081600381111561135057611350611bcd565b1415801561136f5750600083600381111561136d5761136d611bcd565b145b1561138a576005805490600061138483611f82565b91905055505b837fb9fc122007a151e9f0ad733b0284e917cc1d14c37e85c9822aa39929cd05e0e78285336040516111769392919061213c565b6000546001600160a01b031633146113e85760405162461bcd60e51b815260040161032590611e84565b60016004556000600555565b6000546001600160a01b0316331461141e5760405162461bcd60e51b815260040161032590611e84565b6006805460ff19169055565b6000546001600160a01b031633146114545760405162461bcd60e51b815260040161032590611e84565b6001600160a01b0382166114aa5760405162461bcd60e51b815260206004820152601960248201527f496e76616c696420617574686f726974792061646472657373000000000000006044820152606401610325565b6001600160a01b038216600081815260016020908152604091829020805460ff1916851515908117909155825190815233918101919091527f4f8979c3dcc5363b99fd118cdfbe1d9ce7f0ccf10625306eb7d0295f0d850f11910160405180910390a25050565b60008060008060009050600160045461152a9190612187565b60055490959094509092509050565b600060038260405161154b9190611f66565b9081526020016040518091039020549050919050565b604080516101608101825260008082526060602083018190529282018390529181018290526080810182905260a0810182905260c0810182905260e0810182905261010081018290526101208101829052610140810191909152600082815260026020526040902060080154829062010000900460ff166115f45760405162461bcd60e51b815260040161032590612105565b60026000848152602001908152602001600020604051806101600160405290816000820154815260200160018201805461162d90611f9b565b80601f016020809104026020016040519081016040528092919081815260200182805461165990611f9b565b80156116a65780601f1061167b576101008083540402835291602001916116a6565b820191906000526020600020905b81548152906001019060200180831161168957829003601f168201915b505050505081526020016002820180546116bf90611f9b565b80601f01602080910402602001604051908101604052809291908181526020018280546116eb90611f9b565b80156117385780601f1061170d57610100808354040283529160200191611738565b820191906000526020600020905b81548152906001019060200180831161171b57829003601f168201915b50505091835250506003828101546001600160a01b03166020830152600483015460408301526005830154606083015260068301546080830152600783015460a0830152600883015460c09092019160ff169081111561179a5761179a611bcd565b60038111156117ab576117ab611bcd565b81526008919091015460ff6101008204811660208401526201000090910416151560409091015291505b50919050565b634e487b7160e01b600052604160045260246000fd5b604051601f8201601f1916810167ffffffffffffffff8111828210171561181a5761181a6117db565b604052919050565b600067ffffffffffffffff82111561183c5761183c6117db565b5060051b60200190565b600082601f83011261185757600080fd5b813567ffffffffffffffff811115611871576118716117db565b611884601f8201601f19166020016117f1565b81815284602083860101111561189957600080fd5b816020850160208301376000918101602001919091529392505050565b600082601f8301126118c757600080fd5b813560206118dc6118d783611822565b6117f1565b82815260059290921b840181019181810190868411156118fb57600080fd5b8286015b8481101561193b57803567ffffffffffffffff81111561191f5760008081fd5b61192d8986838b0101611846565b8452509183019183016118ff565b509695505050505050565b600082601f83011261195757600080fd5b813560206119676118d783611822565b82815260059290921b8401810191818101908684111561198657600080fd5b8286015b8481101561193b578035835291830191830161198a565b803560ff811681146119b257600080fd5b919050565b600082601f8301126119c857600080fd5b813560206119d86118d783611822565b82815260059290921b840181019181810190868411156119f757600080fd5b8286015b8481101561193b57611a0c816119a1565b83529183019183016119fb565b600080600080600060a08688031215611a3157600080fd5b853567ffffffffffffffff80821115611a4957600080fd5b611a5589838a016118b6565b96506020880135915080821115611a6b57600080fd5b611a7789838a016118b6565b95506040880135915080821115611a8d57600080fd5b611a9989838a01611946565b94506060880135915080821115611aaf57600080fd5b611abb89838a01611946565b93506080880135915080821115611ad157600080fd5b50611ade888289016119b7565b9150509295509295909350565b60008060008060008060c08789031215611b0457600080fd5b863567ffffffffffffffff80821115611b1c57600080fd5b611b288a838b01611846565b97506020890135915080821115611b3e57600080fd5b50611b4b89828a01611846565b955050604087013593506060870135925060808701359150611b6f60a088016119a1565b90509295509295509295565b80356001600160a01b03811681146119b257600080fd5b600060208284031215611ba457600080fd5b611bad82611b7b565b9392505050565b600060208284031215611bc657600080fd5b5035919050565b634e487b7160e01b600052602160045260246000fd5b60048110611c0157634e487b7160e01b600052602160045260246000fd5b9052565b821515815260408101611bad6020830184611be3565b60005b83811015611c36578181015183820152602001611c1e565b50506000910152565b60008151808452611c57816020860160208601611c1b565b601f01601f19169290920160200192915050565b60006101608d8352806020840152611c858184018e611c3f565b90508281036040840152611c99818d611c3f565b91505060018060a01b038a1660608301528860808301528760a08301528660c08301528560e0830152611cd0610100830186611be3565b60ff84166101208301528215156101408301529c9b505050505050505050505050565b60008060408385031215611d0657600080fd5b50508035926020909101359150565b60008060408385031215611d2857600080fd5b82359150602083013560048110611d3e57600080fd5b809150509250929050565b60008060408385031215611d5c57600080fd5b611d6583611b7b565b915060208301358015158114611d3e57600080fd5b600060208284031215611d8c57600080fd5b813567ffffffffffffffff811115611da357600080fd5b611daf84828501611846565b949350505050565b602081528151602082015260006020830151610160806040850152611de0610180850183611c3f565b91506040850151601f19858403016060860152611dfd8382611c3f565b9250506060850151611e1a60808601826001600160a01b03169052565b50608085015160a085015260a085015160c085015260c085015160e085015260e0850151610100818187015280870151915050610120611e5c81870183611be3565b8601519050610140611e728682018360ff169052565b90950151151593019290925250919050565b60208082526022908201527f4f6e6c79206f776e65722063616e20706572666f726d2074686973206163746960408201526137b760f11b606082015260800190565b60208082526012908201527110dbdb9d1c9858dd081a5cc81c185d5cd95960721b604082015260600190565b602080825260159082015274082e4e4c2f240d8cadccee8d040dad2e6dac2e8c6d605b1b604082015260600190565b634e487b7160e01b600052601160045260246000fd5b80820180821115611f4a57611f4a611f21565b92915050565b634e487b7160e01b600052603260045260246000fd5b60008251611f78818460208701611c1b565b9190910192915050565b600060018201611f9457611f94611f21565b5060010190565b600181811c90821680611faf57607f821691505b6020821081036117d557634e487b7160e01b600052602260045260246000fd5b601f82111561118057600081815260208120601f850160051c81016020861015611ff65750805b601f850160051c820191505b8181101561201557828155600101612002565b505050505050565b815167ffffffffffffffff811115612037576120376117db565b61204b816120458454611f9b565b84611fcf565b602080601f83116001811461208057600084156120685750858301515b600019600386901b1c1916600185901b178555612015565b600085815260208120601f198616915b828110156120af57888601518255948401946001909101908401612090565b50858210156120cd5787850151600019600388901b60f8161c191681555b5050505050600190811b01905550565b6020808252600e908201526d139bdd08185d5d1a1bdc9a5e995960921b604082015260600190565b60208082526019908201527f4469676974616c20494420646f6573206e6f7420657869737400000000000000604082015260600190565b6060810161214a8286611be3565b6121576020830185611be3565b6001600160a01b03929092166040919091015292915050565b60008161217f5761217f611f21565b506000190190565b81810381811115611f4a57611f4a611f2156fea26469706673582212209102f5b05a786d73ee71c94922604dfa736e976e472365f5c0ec24c017c3228e64736f6c63430008130033",
  "linkReferences": {},
  "deployedLinkReferences": {}
}